:020000040000fa
:080000000002040000000000f2
:020000040000fa
:040008003e030000b3
:020000040000fa
:04000c003e030000af
:020000040000fa
:040010003e030000ab
:020000040000fa
:040014003e030000a7
:020000040000fa
:040018003e030000a3
:020000040000fa
:04001c003e0300009f
:020000040000fa
:040020003e0300009b
:020000040000fa
:040024003e03000097
:020000040000fa
:040028003e03000093
:020000040000fa
:04002c003e0300008f
:020000040000fa
:040030003e0300008b
:020000040000fa
:0400340004030000c1
:020000040000fa
:040038003e03000083
:020000040000fa
:04003c003e0300007f
:020000040000fa
:040040003e0300007b
:020000040000fa
:040044003e03000077
:020000040000fa
:040048003e03000073
:020000040000fa
:04004c003e0300006f
:020000040000fa
:040050003e0300006b
:020000040000fa
:040054003e03000067
:020000040000fa
:040058003e03000063
:020000040000fa
:04005c003e0300005f
:020000040000fa
:040060003e0300005b
:020000040000fa
:040064003e03000057
:020000040000fa
:040068003e03000053
:020000040000fa
:04006c003e0300004f
:020000040000fa
:040070003e0300004b
:020000040000fa
:040074003e03000047
:020000040000fa
:040078003e03000043
:020000040000fa
:04007c003e0300003f
:020000040000fa
:040080003e0300003b
:020000040000fa
:040084003e03000037
:020000040000fa
:040088003e03000033
:020000040000fa
:04008c003e0300002f
:020000040000fa
:040090003e0300002b
:020000040000fa
:040094003e03000027
:020000040000fa
:040098003e03000023
:020000040000fa
:04009c003e0300001f
:020000040000fa
:0400a0003e0300001b
:020000040000fa
:0400a4003e03000017
:020000040000fa
:0400a8003e03000013
:020000040000fa
:0400ac003e0300000f
:020000040000fa
:0400b0003e0300000b
:020000040000fa
:0400b4003e03000007
:020000040000fa
:0400b8003e03000003
:020000040000fa
:0400bc003e030000ff
:020000040000fa
:0400c0003e030000fb
:020000040000fa
:0400c4003e030000f7
:020000040000fa
:0400c8003e030000f3
:020000040000fa
:0400cc003e030000ef
:020000040000fa
:0400d0003e030000eb
:020000040000fa
:0400d4003e030000e7
:020000040000fa
:0400d8003e030000e3
:020000040000fa
:0400dc003e030000df
:020000040000fa
:0400e0003e030000db
:020000040000fa
:0400e4003e030000d7
:020000040000fa
:0400e8003e030000d3
:020000040000fa
:0400ec003e030000cf
:020000040000fa
:0400f0003e030000cb
:020000040000fa
:0400f4003e030000c7
:020000040000fa
:0400f8003e030000c3
:020000040000fa
:0400fc003e030000bf
:020000040000fa
:040100003e030000ba
:020000040000fa
:040104003e030000b6
:020000040000fa
:040108003e030000b2
:020000040000fa
:04010c003e030000ae
:020000040000fa
:040110003e030000aa
:020000040000fa
:040114003e030000a6
:020000040000fa
:040118003e030000a2
:020000040000fa
:04011c003e0300009e
:020000040000fa
:040120003e0300009a
:020000040000fa
:040124003e03000096
:020000040000fa
:040128003e03000092
:020000040000fa
:04012c003e0300008e
:020000040000fa
:040130003e0300008a
:020000040000fa
:040134003e03000086
:020000040000fa
:040138003e03000082
:020000040000fa
:04013c003e0300007e
:020000040000fa
:040140003e0300007a
:020000040000fa
:040144003e03000076
:020000040000fa
:040148003e03000072
:020000040000fa
:04014c003e0300006e
:020000040000fa
:040150003e0300006a
:020000040000fa
:040154003e03000066
:020000040000fa
:040158003e03000062
:020000040000fa
:04015c003e0300005e
:020000040000fa
:040160003e0300005a
:020000040000fa
:040164003e03000056
:020000040000fa
:040168003e03000052
:020000040000fa
:04016c003e0300004e
:020000040000fa
:040170003e0300004a
:020000040000fa
:040174003e03000046
:020000040000fa
:040178003e03000042
:020000040000fa
:04017c003e0300003e
:020000040000fa
:040180003e0300003a
:020000040000fa
:040184003e03000036
:020000040000fa
:040188003e03000032
:020000040000fa
:04018c003e0300002e
:020000040000fa
:040190003e0300002a
:020000040000fa
:040194003e03000026
:020000040000fa
:040198003e03000022
:020000040000fa
:04019c003e0300001e
:020000040000fa
:0401a0003e0300001a
:020000040000fa
:0401a4003e03000016
:020000040000fa
:0401a8003e03000012
:020000040000fa
:0401ac003e0300000e
:020000040000fa
:0401b0003e0300000a
:020000040000fa
:0401b4003e03000006
:020000040000fa
:0401b8003e03000002
:020000040000fa
:0401bc003e030000fe
:020000040000fa
:0401c0003e030000fa
:020000040000fa
:0401c4003e030000f6
:020000040000fa
:0401c8003e030000f2
:020000040000fa
:0401cc003e030000ee
:020000040000fa
:0401d0003e030000ea
:020000040000fa
:0401d4003e030000e6
:020000040000fa
:0401d8003e030000e2
:020000040000fa
:0401dc003e030000de
:020000040000fa
:0401e0003e030000da
:020000040000fa
:0401e4003e030000d6
:020000040000fa
:0401e8003e030000d2
:020000040000fa
:0401ec003e030000ce
:020000040000fa
:0401f0003e030000ca
:020000040000fa
:0401f4003e030000c6
:020000040000fa
:0401f8003e030000c2
:020000040000fa
:0401fc003e030000be
:020000040000fa
:040208003e030000b1
:020000040000fa
:04020c003e030000ad
:020000040000fa
:040210003e030000a9
:020000040000fa
:040214003e030000a5
:020000040000fa
:040218003e030000a1
:020000040000fa
:04021c003e0300009d
:020000040000fa
:040220003e03000099
:020000040000fa
:040224003e03000095
:020000040000fa
:040228003e03000091
:020000040000fa
:04022c003e0300008d
:020000040000fa
:040230003e03000089
:020000040000fa
:0402340004030000bf
:020000040000fa
:040238003e03000081
:020000040000fa
:04023c003e0300007d
:020000040000fa
:040240003e03000079
:020000040000fa
:040244003e03000075
:020000040000fa
:040248003e03000071
:020000040000fa
:04024c003e0300006d
:020000040000fa
:040250003e03000069
:020000040000fa
:040254003e03000065
:020000040000fa
:040258003e03000061
:020000040000fa
:04025c003e0300005d
:020000040000fa
:040260003e03000059
:020000040000fa
:040264003e03000055
:020000040000fa
:040268003e03000051
:020000040000fa
:04026c003e0300004d
:020000040000fa
:040270003e03000049
:020000040000fa
:040274003e03000045
:020000040000fa
:040278003e03000041
:020000040000fa
:04027c003e0300003d
:020000040000fa
:040280003e03000039
:020000040000fa
:040284003e03000035
:020000040000fa
:040288003e03000031
:020000040000fa
:04028c003e0300002d
:020000040000fa
:040290003e03000029
:020000040000fa
:040294003e03000025
:020000040000fa
:040298003e03000021
:020000040000fa
:04029c003e0300001d
:020000040000fa
:0402a0003e03000019
:020000040000fa
:0402a4003e03000015
:020000040000fa
:0402a8003e03000011
:020000040000fa
:0402ac003e0300000d
:020000040000fa
:0402b0003e03000009
:020000040000fa
:0402b4003e03000005
:020000040000fa
:0402b8003e03000001
:020000040000fa
:0402bc003e030000fd
:020000040000fa
:0402c0003e030000f9
:020000040000fa
:0402c4003e030000f5
:020000040000fa
:0402c8003e030000f1
:020000040000fa
:0402cc003e030000ed
:020000040000fa
:0402d0003e030000e9
:020000040000fa
:0402d4003e030000e5
:020000040000fa
:0402d8003e030000e1
:020000040000fa
:0402dc003e030000dd
:020000040000fa
:0402e0003e030000d9
:020000040000fa
:0402e4003e030000d5
:020000040000fa
:0402e8003e030000d1
:020000040000fa
:0402ec003e030000cd
:020000040000fa
:0402f0003e030000c9
:020000040000fa
:0402f4003e030000c5
:020000040000fa
:0402f8003e030000c1
:020000040000fa
:0402fc003e030000bd
:020000040000fa
:040300003e030000b8
:020000040000fa
:040304003e030000b4
:020000040000fa
:040308003e030000b0
:020000040000fa
:04030c003e030000ac
:020000040000fa
:040310003e030000a8
:020000040000fa
:040314003e030000a4
:020000040000fa
:040318003e030000a0
:020000040000fa
:04031c003e0300009c
:020000040000fa
:040320003e03000098
:020000040000fa
:040324003e03000094
:020000040000fa
:040328003e03000090
:020000040000fa
:04032c003e0300008c
:020000040000fa
:040330003e03000088
:020000040000fa
:040334003e03000084
:020000040000fa
:040338003e03000080
:020000040000fa
:04033c003e0300007c
:020000040000fa
:040340003e03000078
:020000040000fa
:040344003e03000074
:020000040000fa
:040348003e03000070
:020000040000fa
:04034c003e0300006c
:020000040000fa
:040350003e03000068
:020000040000fa
:040354003e03000064
:020000040000fa
:040358003e03000060
:020000040000fa
:04035c003e0300005c
:020000040000fa
:040360003e03000058
:020000040000fa
:040364003e03000054
:020000040000fa
:040368003e03000050
:020000040000fa
:04036c003e0300004c
:020000040000fa
:040370003e03000048
:020000040000fa
:040374003e03000044
:020000040000fa
:040378003e03000040
:020000040000fa
:04037c003e0300003c
:020000040000fa
:040380003e03000038
:020000040000fa
:040384003e03000034
:020000040000fa
:040388003e03000030
:020000040000fa
:04038c003e0300002c
:020000040000fa
:040390003e03000028
:020000040000fa
:040394003e03000024
:020000040000fa
:040398003e03000020
:020000040000fa
:04039c003e0300001c
:020000040000fa
:0403a0003e03000018
:020000040000fa
:0403a4003e03000014
:020000040000fa
:0403a8003e03000010
:020000040000fa
:0403ac003e0300000c
:020000040000fa
:0403b0003e03000008
:020000040000fa
:0403b4003e03000004
:020000040000fa
:0403b8003e03000000
:020000040000fa
:0403bc003e030000fc
:020000040000fa
:0403c0003e030000f8
:020000040000fa
:0403c4003e030000f4
:020000040000fa
:0403c8003e030000f0
:020000040000fa
:0403cc003e030000ec
:020000040000fa
:0403d0003e030000e8
:020000040000fa
:0403d4003e030000e4
:020000040000fa
:0403d8003e030000e0
:020000040000fa
:0403dc003e030000dc
:020000040000fa
:0403e0003e030000d8
:020000040000fa
:0403e4003e030000d4
:020000040000fa
:0403e8003e030000d0
:020000040000fa
:0403ec003e030000cc
:020000040000fa
:0403f0003e030000c8
:020000040000fa
:0403f4003e030000c4
:020000040000fa
:0403f8003e030000c0
:020000040000fa
:0403fc003e030000bc
:020000040000fa
:100400002f8020000e7f22000e01880000000000d7
:10041000000020000000e000020032000001200087
:100420002002880014000700960007000000e0008a
:1004300003003a004057200001002000020037006e
:100440000000200001002000810f70000100320038
:1004500014000700000020000000e000020032004d
:1004600000000200000000005a0502000000000029
:100470000040da000000fe004440a90020002000f7
:100480000000e0000300320010002000900188000e
:100490004440a800000006008a1f78008b1f7800e7
:1004a00000000600a1028800800478000000eb0034
:1004b0001f003700e284440054a0b4009905ba003c
:1004c000e284440054a0b4009906ba00e2844400d7
:1004d00054a0b4000006eb00476fde00fd07b20039
:1004e000ae018800636ce10003003a00eaff0700f8
:1004f0000000eb000e003700606ce10008003a00dd
:10050000004deb000a05e800020039003420ec0041
:100510000af0a0008b05e900f9ff3e000400370057
:100520006168e100010032000086eb000b0007006b
:1005300019c7ba001905ba000e04e00003003a001a
:100540000a00e000dbff3a0000000600fe07b200f0
:10055000ae0288008a047800f5ff37000cd0a300b3
:10056000e20f4d001c00390089027800354dba00b9
:100570000a05e800020039003420ec000af0a0006f
:100580008b05e9000f003200254dba000a05e8008e
:10059000020039003420ec000af0a0008b05e900cd
:1005a000080032000c00e0000600320015cdba0051
:1005b0000a05e800020039003420ec000af0a0002f
:1005c0008b05e9008984e80054a0b4000b00e0002a
:1005d000e2ff3a00000006009902ba00055d7800cb
:1005e0008b05e900f7ff3200c82ade00055d7800c0
:1005f0008b05e900f3ff32000c00e000f1ff320050
:1006000019ddba00eeff3700809fbe00829fbe005a
:100610003200f8003400f80010002000a00188002b
:1006200010002000900188000000fa0001802000e6
:100630009140780010c0b300e9cf500001003e00a7
:100640000040eb008140e8008141780002802000fa
:10065000034978000004e000010032000068ef0068
:100660008460a9000080fa003400f9003200f9002b
:100670004f01be004f00be00004006000040da00ff
:080680000000fe00000005006f
:020000040000fa
:100688000200fa00000f78001e007800e20f500008
:1006980010003200e20f500005003e000000e000ac
:1006a80014003200e10f5000080032001200370039
:1006b800e40f50000d003200e40f5000070039002d
:1006c800e50f5000070032000b00370098a1a80082
:1006d8000900370098c1a8000700370098e1a80072
:1006e800050037008521a800030037008541a800d0
:1006f80001003700000000000080fa00000006003a
:100708000200fa00000f78001e007800e20f500087
:1007180010003200e20f500005003e000000e0002b
:1007280014003200e10f50000800320012003700b8
:10073800e40f50000d003200e40f500007003900ac
:10074800e50f5000070032000b00370098a1a90000
:100758000900370098c1a9000700370098e1a900ef
:10076800050037008521a900030037008541a9004d
:1007780001003700000000000080fa0000000600b9
:100788000200fa00000f78001e007800e20f500007
:100798001b003200e20f500005003e000000e000a0
:1007a8004b003200e10f50000800320049003700ca
:1007b800e40f500039003200e40f50001d003900ea
:1007c800e50f50002800320042003700c00c8000be
:1007d8004500de00614060000004a2006140600046
:1007e8000080fb00610060004500dd00c10c800056
:1007f8000150a10001007000c00c880035003700ce
:10080800c00c80004600de00614060000004a200c9
:10081800614060000080fb00610060004600dd0070
:10082800c10c80000160a10001007000c00c8800ac
:1008380028003700c00c80004700de0061406000df
:100848000004a200614060000080fb0061006000bd
:100858004700dd00c10c80000170a100010070009c
:10086800c00c88001b003700200c80004900de0007
:10087800614060000004a200614060000080fb004d
:10088800610060004900dd00210c80000190a1009a
:1008980001007000200c88000e003700200c80003a
:1008a8004a00de00614060000004a2006140600070
:1008b8000080fb00610060004a00dd00210c800020
:1008c80001a0a10001007000200c88000100370081
:1008d800000000000080fa00000006000200fa0094
:1008e800000f78001e007800e20f50001700320059
:1008f800e20f500005003e000000e0003700320023
:10090800e10f50000800320036003700e40f5000b5
:1009180029003200e40f500015003900e50f50009f
:100928001c0032002f003700c10c8000000220009c
:100938000080600000f0a7000000ea000000ea0064
:100948004f00de000040780027003700c10c80000f
:10095800000420000080600000f0a7000000ea000a
:100968000000ea004f00de00004078001e0037005b
:10097800c10c8000000820000080600000f0a70083
:100988000000ea000000ea004f00de0000407800a6
:1009980015003700210c8000002020000080600036
:1009a80000f0a7000000ea000000ea004f00de00a7
:1009b800004078000c003700210c80000040200027
:1009c8000080600000f0a7000000ea000000ea00d4
:1009d8004f00de0000407800030037000040eb00c5
:1009e800010037000040eb000080fa00000006001c
:1009f8000200fa00000f78001e007800e20f500095
:100a080010003200e20f500005003e000000e00038
:100a180014003200e10f50000800320012003700c5
:100a2800e40f50000d003200e40f500007003900b9
:100a3800e50f5000070032000b00370094a1a90011
:100a48000900370094c1a9000700370094e1a90004
:100a5800050037008121a900030037008141a90062
:100a680001003700000000000080fa0000000600c6
:100a78000000fa0021058000f0ff280000806000d7
:100a880000e0a00020058800f0342c0070128800d7
:100a98004c22ef0000022800801288008460a90020
:100aa8009460a8000080fa00000006000000fa0028
:100ab800efff070030002000cdff070000c8bf008f
:100ac800e44f50000300360030002000ecfe070021
:100ad800faff37003000200009ff0700f7ff370052
:020000040000fa
:100ae8000008000002000000800000000000000074
:00000001FF
