:020000040000fa
:080000000002040000000000f2
:020000040000fa
:04000800a803000049
:020000040000fa
:04000c00a803000045
:020000040000fa
:04001000a803000041
:020000040000fa
:04001400a80300003d
:020000040000fa
:04001800a803000039
:020000040000fa
:04001c00a803000035
:020000040000fa
:04002000a803000031
:020000040000fa
:04002400a80300002d
:020000040000fa
:04002800a803000029
:020000040000fa
:04002c00a803000025
:020000040000fa
:04003000a803000021
:020000040000fa
:04003400a80300001d
:020000040000fa
:04003800a803000019
:020000040000fa
:04003c00a803000015
:020000040000fa
:04004000a803000011
:020000040000fa
:04004400a80300000d
:020000040000fa
:0400480004030000ad
:020000040000fa
:04004c00a803000005
:020000040000fa
:04005000a803000001
:020000040000fa
:04005400a8030000fd
:020000040000fa
:04005800a8030000f9
:020000040000fa
:04005c00a8030000f5
:020000040000fa
:04006000a8030000f1
:020000040000fa
:04006400a8030000ed
:020000040000fa
:04006800a8030000e9
:020000040000fa
:04006c00a8030000e5
:020000040000fa
:04007000a8030000e1
:020000040000fa
:04007400a8030000dd
:020000040000fa
:04007800a8030000d9
:020000040000fa
:04007c00a8030000d5
:020000040000fa
:04008000a8030000d1
:020000040000fa
:04008400a8030000cd
:020000040000fa
:04008800a8030000c9
:020000040000fa
:04008c00a8030000c5
:020000040000fa
:04009000a8030000c1
:020000040000fa
:04009400a8030000bd
:020000040000fa
:04009800a8030000b9
:020000040000fa
:04009c00a8030000b5
:020000040000fa
:0400a000a8030000b1
:020000040000fa
:0400a400a8030000ad
:020000040000fa
:0400a800a8030000a9
:020000040000fa
:0400ac00a8030000a5
:020000040000fa
:0400b000a8030000a1
:020000040000fa
:0400b400a80300009d
:020000040000fa
:0400b800a803000099
:020000040000fa
:0400bc00a803000095
:020000040000fa
:0400c000a803000091
:020000040000fa
:0400c400a80300008d
:020000040000fa
:0400c800a803000089
:020000040000fa
:0400cc00a803000085
:020000040000fa
:0400d000a803000081
:020000040000fa
:0400d400a80300007d
:020000040000fa
:0400d800a803000079
:020000040000fa
:0400dc00a803000075
:020000040000fa
:0400e000a803000071
:020000040000fa
:0400e400a80300006d
:020000040000fa
:0400e800a803000069
:020000040000fa
:0400ec00a803000065
:020000040000fa
:0400f000a803000061
:020000040000fa
:0400f400a80300005d
:020000040000fa
:0400f800a803000059
:020000040000fa
:0400fc00a803000055
:020000040000fa
:04010000a803000050
:020000040000fa
:04010400a80300004c
:020000040000fa
:04010800a803000048
:020000040000fa
:04010c00a803000044
:020000040000fa
:04011000a803000040
:020000040000fa
:04011400a80300003c
:020000040000fa
:04011800a803000038
:020000040000fa
:04011c00a803000034
:020000040000fa
:04012000a803000030
:020000040000fa
:04012400a80300002c
:020000040000fa
:04012800a803000028
:020000040000fa
:04012c00a803000024
:020000040000fa
:04013000a803000020
:020000040000fa
:04013400a80300001c
:020000040000fa
:04013800a803000018
:020000040000fa
:04013c00a803000014
:020000040000fa
:04014000a803000010
:020000040000fa
:04014400a80300000c
:020000040000fa
:04014800a803000008
:020000040000fa
:04014c00a803000004
:020000040000fa
:04015000a803000000
:020000040000fa
:04015400a8030000fc
:020000040000fa
:04015800a8030000f8
:020000040000fa
:04015c00a8030000f4
:020000040000fa
:04016000a8030000f0
:020000040000fa
:04016400a8030000ec
:020000040000fa
:04016800a8030000e8
:020000040000fa
:04016c00a8030000e4
:020000040000fa
:04017000a8030000e0
:020000040000fa
:04017400a8030000dc
:020000040000fa
:04017800a8030000d8
:020000040000fa
:04017c00a8030000d4
:020000040000fa
:04018000a8030000d0
:020000040000fa
:04018400a8030000cc
:020000040000fa
:04018800a8030000c8
:020000040000fa
:04018c00a8030000c4
:020000040000fa
:04019000a8030000c0
:020000040000fa
:04019400a8030000bc
:020000040000fa
:04019800a8030000b8
:020000040000fa
:04019c00a8030000b4
:020000040000fa
:0401a000a8030000b0
:020000040000fa
:0401a400a8030000ac
:020000040000fa
:0401a800a8030000a8
:020000040000fa
:0401ac00a8030000a4
:020000040000fa
:0401b000a8030000a0
:020000040000fa
:0401b400a80300009c
:020000040000fa
:0401b800a803000098
:020000040000fa
:0401bc00a803000094
:020000040000fa
:0401c000a803000090
:020000040000fa
:0401c400a80300008c
:020000040000fa
:0401c800a803000088
:020000040000fa
:0401cc00a803000084
:020000040000fa
:0401d000a803000080
:020000040000fa
:0401d400a80300007c
:020000040000fa
:0401d800a803000078
:020000040000fa
:0401dc00a803000074
:020000040000fa
:0401e000a803000070
:020000040000fa
:0401e400a80300006c
:020000040000fa
:0401e800a803000068
:020000040000fa
:0401ec00a803000064
:020000040000fa
:0401f000a803000060
:020000040000fa
:0401f400a80300005c
:020000040000fa
:0401f800a803000058
:020000040000fa
:0401fc00a803000054
:020000040000fa
:04020800a803000047
:020000040000fa
:04020c00a803000043
:020000040000fa
:04021000a80300003f
:020000040000fa
:04021400a80300003b
:020000040000fa
:04021800a803000037
:020000040000fa
:04021c00a803000033
:020000040000fa
:04022000a80300002f
:020000040000fa
:04022400a80300002b
:020000040000fa
:04022800a803000027
:020000040000fa
:04022c00a803000023
:020000040000fa
:04023000a80300001f
:020000040000fa
:04023400a80300001b
:020000040000fa
:04023800a803000017
:020000040000fa
:04023c00a803000013
:020000040000fa
:04024000a80300000f
:020000040000fa
:04024400a80300000b
:020000040000fa
:0402480004030000ab
:020000040000fa
:04024c00a803000003
:020000040000fa
:04025000a8030000ff
:020000040000fa
:04025400a8030000fb
:020000040000fa
:04025800a8030000f7
:020000040000fa
:04025c00a8030000f3
:020000040000fa
:04026000a8030000ef
:020000040000fa
:04026400a8030000eb
:020000040000fa
:04026800a8030000e7
:020000040000fa
:04026c00a8030000e3
:020000040000fa
:04027000a8030000df
:020000040000fa
:04027400a8030000db
:020000040000fa
:04027800a8030000d7
:020000040000fa
:04027c00a8030000d3
:020000040000fa
:04028000a8030000cf
:020000040000fa
:04028400a8030000cb
:020000040000fa
:04028800a8030000c7
:020000040000fa
:04028c00a8030000c3
:020000040000fa
:04029000a8030000bf
:020000040000fa
:04029400a8030000bb
:020000040000fa
:04029800a8030000b7
:020000040000fa
:04029c00a8030000b3
:020000040000fa
:0402a000a8030000af
:020000040000fa
:0402a400a8030000ab
:020000040000fa
:0402a800a8030000a7
:020000040000fa
:0402ac00a8030000a3
:020000040000fa
:0402b000a80300009f
:020000040000fa
:0402b400a80300009b
:020000040000fa
:0402b800a803000097
:020000040000fa
:0402bc00a803000093
:020000040000fa
:0402c000a80300008f
:020000040000fa
:0402c400a80300008b
:020000040000fa
:0402c800a803000087
:020000040000fa
:0402cc00a803000083
:020000040000fa
:0402d000a80300007f
:020000040000fa
:0402d400a80300007b
:020000040000fa
:0402d800a803000077
:020000040000fa
:0402dc00a803000073
:020000040000fa
:0402e000a80300006f
:020000040000fa
:0402e400a80300006b
:020000040000fa
:0402e800a803000067
:020000040000fa
:0402ec00a803000063
:020000040000fa
:0402f000a80300005f
:020000040000fa
:0402f400a80300005b
:020000040000fa
:0402f800a803000057
:020000040000fa
:0402fc00a803000053
:020000040000fa
:04030000a80300004e
:020000040000fa
:04030400a80300004a
:020000040000fa
:04030800a803000046
:020000040000fa
:04030c00a803000042
:020000040000fa
:04031000a80300003e
:020000040000fa
:04031400a80300003a
:020000040000fa
:04031800a803000036
:020000040000fa
:04031c00a803000032
:020000040000fa
:04032000a80300002e
:020000040000fa
:04032400a80300002a
:020000040000fa
:04032800a803000026
:020000040000fa
:04032c00a803000022
:020000040000fa
:04033000a80300001e
:020000040000fa
:04033400a80300001a
:020000040000fa
:04033800a803000016
:020000040000fa
:04033c00a803000012
:020000040000fa
:04034000a80300000e
:020000040000fa
:04034400a80300000a
:020000040000fa
:04034800a803000006
:020000040000fa
:04034c00a803000002
:020000040000fa
:04035000a8030000fe
:020000040000fa
:04035400a8030000fa
:020000040000fa
:04035800a8030000f6
:020000040000fa
:04035c00a8030000f2
:020000040000fa
:04036000a8030000ee
:020000040000fa
:04036400a8030000ea
:020000040000fa
:04036800a8030000e6
:020000040000fa
:04036c00a8030000e2
:020000040000fa
:04037000a8030000de
:020000040000fa
:04037400a8030000da
:020000040000fa
:04037800a8030000d6
:020000040000fa
:04037c00a8030000d2
:020000040000fa
:04038000a8030000ce
:020000040000fa
:04038400a8030000ca
:020000040000fa
:04038800a8030000c6
:020000040000fa
:04038c00a8030000c2
:020000040000fa
:04039000a8030000be
:020000040000fa
:04039400a8030000ba
:020000040000fa
:04039800a8030000b6
:020000040000fa
:04039c00a8030000b2
:020000040000fa
:0403a000a8030000ae
:020000040000fa
:0403a400a8030000aa
:020000040000fa
:0403a800a8030000a6
:020000040000fa
:0403ac00a8030000a2
:020000040000fa
:0403b000a80300009e
:020000040000fa
:0403b400a80300009a
:020000040000fa
:0403b800a803000096
:020000040000fa
:0403bc00a803000092
:020000040000fa
:0403c000a80300008e
:020000040000fa
:0403c400a80300008a
:020000040000fa
:0403c800a803000086
:020000040000fa
:0403cc00a803000082
:020000040000fa
:0403d000a80300007e
:020000040000fa
:0403d400a80300007a
:020000040000fa
:0403d800a803000076
:020000040000fa
:0403dc00a803000072
:020000040000fa
:0403e000a80300006e
:020000040000fa
:0403e400a80300006a
:020000040000fa
:0403e800a803000066
:020000040000fa
:0403ec00a803000062
:020000040000fa
:0403f000a80300005e
:020000040000fa
:0403f400a80300005a
:020000040000fa
:0403f800a803000056
:020000040000fa
:0403fc00a803000052
:020000040000fa
:100400004f8620000e7f22000e01880000000000b1
:10041000000020000000e000020032000001200087
:100420002002880014000700cb0007000000e00055
:1004300003003a00606b200001002000020037003a
:100440000000200001002000810f70000100320038
:1004500014000700000020000000e000020032004d
:100460000000020000000000ae06020000000000d4
:100470000040da000000fe004440a90020002000f7
:100480000000e0000300320010002000900188000e
:100490004440a800000006008a1f78008b1f7800e7
:1004a00000000600a1028800800478000000eb0034
:1004b0001f003700e284440054a0b4009905ba003c
:1004c000e284440054a0b4009906ba00e2844400d7
:1004d00054a0b4000006eb00476fde00fd07b20039
:1004e000ae018800636ce10003003a00eaff0700f8
:1004f0000000eb000e003700606ce10008003a00dd
:10050000004deb000a05e800020039003420ec0041
:100510000af0a0008b05e900f9ff3e000400370057
:100520006168e100010032000086eb000b0007006b
:1005300019c7ba001905ba000e04e00003003a001a
:100540000a00e000dbff3a0000000600fe07b200f0
:10055000ae0288008a047800f5ff37000cd0a300b3
:10056000e20f4d001c00390089027800354dba00b9
:100570000a05e800020039003420ec000af0a0006f
:100580008b05e9000f003200254dba000a05e8008e
:10059000020039003420ec000af0a0008b05e900cd
:1005a000080032000c00e0000600320015cdba0051
:1005b0000a05e800020039003420ec000af0a0002f
:1005c0008b05e9008984e80054a0b4000b00e0002a
:1005d000e2ff3a00000006009902ba00055d7800cb
:1005e0008b05e900f7ff3200c82ade00055d7800c0
:1005f0008b05e900f3ff32000c00e000f1ff320050
:1006000019ddba00eeff37003600f800809fbe000b
:10061000829fbe00849fbe00869fbe003200f8000d
:100620003400f80010002000a00188001000200015
:10063000900188000200fa000040eb00004f7800b3
:10064000360037001e80fb006a00b9008000780089
:100650000080200000804000100078000000e000d2
:100660002d0032001e81fb006a10b90000007800e6
:10067000e600400000802000008040001000be0026
:1006800061004000e08048006a11b90082017800f2
:1006900062802000028141000089be001e80fb00b4
:1006a0006a00b90000007800e600400000802000e9
:1006b000008040001001be001e80fb006a00b900ef
:1006c000000078008080e80000802000008040006a
:1006d0001000be00800f5100818f59000e003a00bb
:1006e0001e80fb006a00b9008000780000802000b6
:1006f0000080400010007800000001001e80fb0018
:100700006a00b9008000780060802000008140000d
:100710006000b8000089be001e4fe8001e4078004f
:10072000e94f5000c7ff36008500a9000080fa009d
:100730003400f9003200f9004f03be004f02be0042
:100740004f01be004f00be003600f9000040060019
:100750000040da000000fe00000005008001780083
:1007600002003700815978000201e9000200e00030
:08077000fcff3a000000060046
:020000040000fa
:100778000200fa00000f78001e007800e20f500017
:1007880010003200e20f500005003e000000e000bb
:1007980014003200e10f5000080032001200370048
:1007a800e40f50000d003200e40f5000070039003c
:1007b800e50f5000070032000b00370098a1a80091
:1007c8000900370098c1a8000700370098e1a80081
:1007d800050037008521a800030037008541a800df
:1007e80001003700000000000080fa000000060049
:1007f8000200fa00000f78001e007800e20f500097
:1008080010003200e20f500005003e000000e0003a
:1008180014003200e10f50000800320012003700c7
:10082800e40f50000d003200e40f500007003900bb
:10083800e50f5000070032000b00370098a1a9000f
:100848000900370098c1a9000700370098e1a900fe
:10085800050037008521a900030037008541a9005c
:1008680001003700000000000080fa0000000600c8
:100878000200fa00000f78001e007800e20f500016
:100888001b003200e20f500005003e000000e000af
:100898004b003200e10f50000800320049003700d9
:1008a800e40f500039003200e40f50001d003900f9
:1008b800e50f50002800320042003700c00c8000cd
:1008c8004500de00614060000004a2006140600055
:1008d8000080fb00610060004500dd00c10c800065
:1008e8000150a10001007000c00c880035003700dd
:1008f800c00c80004600de00614060000004a200d9
:10090800614060000080fb00610060004600dd007f
:10091800c10c80000160a10001007000c00c8800bb
:1009280028003700c00c80004700de0061406000ee
:100938000004a200614060000080fb0061006000cc
:100948004700dd00c10c80000170a10001007000ab
:10095800c00c88001b003700200c80004900de0016
:10096800614060000004a200614060000080fb005c
:10097800610060004900dd00210c80000190a100a9
:1009880001007000200c88000e003700200c800049
:100998004a00de00614060000004a200614060007f
:1009a8000080fb00610060004a00dd00210c80002f
:1009b80001a0a10001007000200c88000100370090
:1009c800000000000080fa00000006000200fa00a3
:1009d800000f78001e007800e20f50001700320068
:1009e800e20f500005003e000000e0003700320032
:1009f800e10f50000800320036003700e40f5000c5
:100a080029003200e40f500015003900e50f5000ae
:100a18001c0032002f003700c10c800000022000ab
:100a28000080600000f0a7000000ea000000ea0073
:100a38004f00de000040780027003700c10c80001e
:100a4800000420000080600000f0a7000000ea0019
:100a58000000ea004f00de00004078001e0037006a
:100a6800c10c8000000820000080600000f0a70092
:100a78000000ea000000ea004f00de0000407800b5
:100a880015003700210c8000002020000080600045
:100a980000f0a7000000ea000000ea004f00de00b6
:100aa800004078000c003700210c80000040200036
:100ab8000080600000f0a7000000ea000000ea00e3
:100ac8004f00de0000407800030037000040eb00d4
:100ad800010037000040eb000080fa00000006002b
:100ae8000200fa00000f78001e007800e20f5000a4
:100af80010003200e20f500005003e000000e00048
:100b080014003200e10f50000800320012003700d4
:100b1800e40f50000d003200e40f500007003900c8
:100b2800e50f5000070032000b00370094a1a90020
:100b38000900370094c1a9000700370094e1a90013
:100b4800050037008121a900030037008141a90071
:100b580001003700000000000080fa0000000600d5
:100b68000400fa00100798000040eb00004f7800de
:100b7800110037001e80fb006a00b9008000780071
:100b88000080200000804000900078001e00900047
:100b9800808f500007003a001e80fb006a00b900f1
:100ba8008000780000802000008040008000eb007a
:100bb800010878001e4fe8001e407800e94f5000f9
:100bc800ecff36000080fa00000006000800fa007a
:100bd8001007980022079800330798000040eb00a0
:100be800004f7800210037001e80fb006a00b90022
:100bf800800078000080200000804000100078000d
:100c08000000e00018003a001e80fb006a00b900ee
:100c18008000780000802000008040009e00900046
:100c2800010878001e80fb006a00b9008000780087
:100c380020802000008040002e019000be0190001e
:100c48000288be001e80fb006a00b90080007800a0
:100c580060802000008140006000b8000089be006c
:100c680010c0b300050037001e4fe8001e40780092
:100c7800e94f5000dcff36000040eb000080fa002e
:100c8800000006000200fa00000f78001e0078003d
:100c9800e10f500017003200e10f50000300390047
:100ca800e20f5000250032002700370042062000de
:100cb8008000eb0000802000a6fe070041058000b0
:100cc80080ff2f00008060000000a0004005880021
:100cd8008500a9005622ef00007d2000d012880070
:100ce80000012a00f01288009500a80010c0b30087
:100cf80016003700420620008000eb00008020002c
:100d080094fe070021058000f0ff280000806000a5
:100d180000e0a000200588008460a9004c22ef00b4
:100d28000000280070128800200028008012880027
:100d38009460a80010c0b300040037009500a90013
:100d480010c0b300010037000040eb000080fa003b
:100d5800000006000000fa000000eb000080fa0026
:040d68000000060081
:020000040000fa
:100d6c00000800006400000080000000000000008b
:00000001FF
